S01600007475726E6F66665F7377697463682E7372656319
S11300000AC01CC01BC01AC019C018C017C016C033
S11300104DC014C013C011271FBFCFE5D0E0DEBF11
S1130020CDBF20E0A0E4B0E0E4E0F1E402C031910F
S11300303D93A234B207D9F702D062C0E1CF47E8BA
S113004053E141505040E9F700C0000041E041B99C
S113005052E057BB55E052B967EA71E6615070400F
S1130060E9F700C000004BBB47EC4DBBEE99FECF57
S11300704DB340684DBBEE99FECF49B350E04F5F9E
S11300805F4F51A940A95EE048ED0FB7F894A895D9
S11300904CBF51BF0FBFA89578944AB7417F4460C5
S11300A04ABF4AB741604ABF8895FECF1F930F935A
S11300B00FB70F9310E04F935F9340A151A14150AC
S11300C0510B51A940A9452BA1F048ED50E00FB7C1
S11300D0F894A8954CBF51B7577F51BF0FBF4DB38C
S11300E04F774DBB42B14E7F42B941E050E051A938
S11300F040A95F914F910F910FBF0F911F911895D8
S1070100F894FFCF9D
S1050104FFFFF7
S9030000FC
