:100000000AC01CC01BC01AC019C018C017C016C037
:1000100052C014C013C011271FBFCFE5D0E0DEBF10
:10002000CDBF20E0A0E4B0E0E6E3F1E402C031910E
:100030003D93A234B207D9F702D06BC0E1CF47E8B5
:1000400053E141505040E9F700C0000041E041B9A0
:1000500052E057BB55E052B967EA71E66150704013
:10006000E9F700C000004BBB47EC4DBBEE99FECF5B
:1000700049B350E04F5F5F4F51A940A9EF9AEE9905
:10008000FECFE9B3E295EF70F0E0EE0FFF1FEA5EFE
:10009000FE4B4191508151A940A9EF9846E441BFE0
:1000A000A89578944AB7417F44604ABF4AB74160F7
:1000B0004ABF8895FECF1F930F930FB70F9310E0A1
:1000C0004F935F936F9340A151A14F3F5F4FC9F092
:1000D00040A151A14150510B51A940A9452B89F490
:1000E00048ED50E00FB7F894A8954CBF51B7577F33
:1000F00051BF0FBFEF98109841E050E051A940A9BF
:10010000FFCF6F915F914F910F910FBF0F911F9193
:060110001895F894FFCFE2
:100116000A001E003C0078002C01580284030807E0
:10012600100E201C302A40388070C0A820FDFFFF2A
:02013600FFFFC9
:00000001FF
